:100000000EC01DC01CC01BC01AC019C018C017C02C
:1000100016C015C014C013C012C011C010C01124E6
:100020001FBECFE5D1E0DEBFCDBF20E0A0E6B0E04F
:1000300001C01D92A236B207E1F787D0E5C0E0CF3C
:10004000FC019081862F809598239083ABECB0E0E3
:100050001197F1F700C00000908140FF02C0962B7D
:1000600001C098239083ABECB0E01197F1F700C08A
:100070000000908141FF02C0962B01C0982390831D
:10008000ABECB0E01197F1F700C00000908142FFA7
:1000900002C0962B01C098239083ABECB0E011977F
:1000A000F1F700C00000908143FF02C0962B01C011
:1000B00098239083ABECB0E01197F1F700C00000FB
:1000C000908144FF02C0962B01C098239083ABEC33
:1000D000B0E01197F1F700C00000908145FF02C029
:1000E000962B01C098239083ABECB0E01197F1F709
:1000F00000C00000908146FF02C0962B01C09823EB
:100100009083ABECB0E01197F1F700C0000047FF1F
:1001100003C08081862B02C09081892380838BEC71
:1001200090E00197F1F700C000008081682B6083A8
:10013000ABECB0E01197F1F700C000008BEC90E061
:100140000197F1F700C00000089580E886BD16BC55
:10015000C29ABA9AC398BB9A83B7816083BFC39A85
:100160008AE18A95F1F700C0C3981092610012BE2F
:1001700088B7826088BFB4990AC008B601FEFBCF79
:10018000809161008F5F809361008F3F89F71092AB
:10019000610012BE88B7826088BFB49904C082B77C
:1001A000809360000AC008B601FEF7CF809161001D
:1001B0008F5F809361008F3F69F741E064E088E3DF
:1001C00090E03EDF42E064E088E390E039DF43E026
:1001D00064E088E390E034DF44E064E088E390E0AA
:1001E0002FDF4091600064E088E390E029DF4091D8
:1001F000610064E088E390E023DF8FE19EE40197F3
:0C020000F1F700C00000ABCFF894FFCF76
:00000001FF
