:100000000EC01DC01CC01BC01AC019C018C017C02C
:1000100016C015C014C013C012C011C010C01124E6
:100020001FBECFE5D1E0DEBFCDBF21E0A0E6B0E04E
:1000300001C01D92A932B207E1F787D0F5C0E0CF29
:10004000FC019081862F809598239083ABECB0E0E3
:100050001197F1F700C00000908140FF02C0962B7D
:1000600001C098239083ABECB0E01197F1F700C08A
:100070000000908141FF02C0962B01C0982390831D
:10008000ABECB0E01197F1F700C00000908142FFA7
:1000900002C0962B01C098239083ABECB0E011977F
:1000A000F1F700C00000908143FF02C0962B01C011
:1000B00098239083ABECB0E01197F1F700C00000FB
:1000C000908144FF02C0962B01C098239083ABEC33
:1000D000B0E01197F1F700C00000908145FF02C029
:1000E000962B01C098239083ABECB0E01197F1F709
:1000F00000C00000908146FF02C0962B01C09823EB
:100100009083ABECB0E01197F1F700C0000047FF1F
:1001100003C08081862B02C09081892380838BEC71
:1001200090E00197F1F700C000008081682B6083A8
:10013000ABECB0E01197F1F700C000008BEC90E061
:100140000197F1F700C00000089580E886BD16BC55
:10015000C29ABA9A82E887B986E886B941E064E033
:1001600088E390E06DDF8FE19EE40197F1F700C036
:10017000000042E064E088E390E062DF8FE19EE40B
:100180000197F1F700C0000043E064E088E390E0ED
:1001900057DF8FE19EE40197F1F700C0000044E0D3
:1001A00064E088E390E04CDF8FE19EE40197F1F793
:1001B00000C0000010922801809128018436A8F424
:1001C000369A3699FECF80912801282F30E094B1DD
:1001D000F901EC53FF4F908395B1F901E05AFF4FBD
:1001E00090838F5F80932801E7CF10922801E091E0
:1001F0002801E43608F0B2CFF0E0EC53FF4F408125
:1002000064E088E390E01CDFE0912801F0E0E05A30
:10021000FF4F408164E088E390E012DF8091280185
:0C0220008F5F80932801E3CFF894FFCF9C
:00000001FF
