:1000000028C04CC04BC04AC049C048C047C046C0C9
:1000100045C044C043C065C141C040C03FC03EC0B0
:100020003DC0000000000004030201000000003B8E
:1000300000380000003A0037000101010101010110
:1000400001020202010204081020408004020100A3
:10005000390311241FBECFE5D1E0DEBFCDBF10E0D4
:10006000A0E6B0E0E0E7F8E002C005900D92A0360F
:10007000B107D9F720E0A0E6B0E001C01D92A63993
:10008000B207E1F710E0C9E2D0E003C02197FE011A
:10009000E7D3C832D107D1F717D2E8C3B1CFCF9297
:1000A000DF92EF92FF920F931F93BC01603282E0C8
:1000B00078070CF042C077FD06C0653B71052CF057
:1000C00064EB70E002C060E070E08091940028E88A
:1000D00030E06901C81AD10887FDD394CC0CDD1C2F
:1000E000CC0CDD1C0D2C000CEE08FF08072E000CBC
:1000F000880B990B4091950028E532E0241B3109CB
:1001000047FD3395220F331F220F331F8901330F11
:10011000220B330BA90198012C193D094E095F09E7
:10012000DED2B901CA0124EB30E040E050E0BBD29E
:10013000C20ED31EE41EF51EB601809193008C30D2
:1001400088F59091940048E850E0491B510997FDCB
:100150005395440F551F440F551F641775078CF0B6
:100160009091950028E532E0291B310997FD3395E0
:10017000220F331F220F331FAB01261737070CF452
:10018000A901EFB7F8949A012250310990E063E099
:1001900070E049D381599F4FDC0112963C932E9316
:1001A0001197EFBF1F910F91FF90EF90DF90CF90CD
:1001B000089590E0FC01EE5DFF4F3491FC01EC5B93
:1001C000FF4F2491FC01E75CFF4FE491EE2351F1D6
:1001D0003323B1F0323089F028F4313089F480B71C
:1001E0008F770DC0333029F0343051F48FB58F7DC7
:1001F00002C08FB58F778FBD03C080B78F7D80BF62
:10020000F0E0EE0FFF1FE35DFF4FA591B4918FB7B4
:10021000F894EC91611103C020952E2301C02E2B80
:100220002C938FBF08953FB7F89480916700909109
:100230006800A0916900B0916A0022B708B600FE7C
:1002400005C02F3F19F00196A11DB11D3FBFBA2F68
:10025000A92F982F8827820F911DA11DB11DBC01C8
:10026000CD0143E0660F771F881F991F4A95D1F78C
:1002700008958F929F92AF92BF92CF92DF92EF92AA
:10028000FF926B017C01CFDF4B015C01C114D104F3
:10029000E104F104E9F0C7DFDC01CB018819990919
:1002A000AA09BB09883E9340A105B10578F321E076
:1002B000C21AD108E108F10888EE880E83E0981E82
:1002C000A11CB11CC114D104E104F10421F7DECF5B
:1002D000FF90EF90DF90CF90BF90AF909F908F9066
:1002E00008951F920F920FB60F9211242F933F93F0
:1002F0008F939F93AF93BF9380916300909164001D
:10030000A0916500B09166003091620026E0230F55
:100310002D3720F40296A11DB11D05C029E8230F39
:100320000396A11DB11D20936200809363009093FA
:100330006400A0936500B09366008091670090917F
:100340006800A0916900B0916A000196A11DB11DDD
:100350008093670090936800A0936900B0936A004F
:10036000BF91AF919F918F913F912F910F900FBEB1
:100370000F901F9018951F920F920FB60F92112495
:100380002F933F934F935F936F937F938F939F939D
:10039000AF93BF93EF93FF938091610087FF03C0FA
:1003A0001DBC1CBC19C020916100022E000C330B37
:1003B0008091600090E02817390774F48091610003
:1003C000082E000C990B63E070E02DD281599F4FED
:1003D000FC01808186FD15C0809161008F5F809354
:1003E000610020916100022E000C330B80916000AF
:1003F00090E028173907ACF4809161008C301CF133
:1004000010C080916100082E000C990B63E070E031
:100410000AD281599F4FFC01808160E08F73C9DE51
:10042000DBCF8CB59DB5049680329E4418F480E2F3
:100430009EE403C08CB59DB504969BBD8ABD8FEF2D
:100440008093610030C02CB53DB580916100082ECD
:10045000000C990B63E070E0E6D181599F4FFC01DD
:1004600081819281280F391F3BBD2ABD8091610097
:10047000082E000C990B63E070E0D5D181599F4F95
:10048000FC01808186FF0FC080916100082E000C66
:10049000990B63E070E0C7D181599F4FFC018081C7
:1004A00061E08F7386DEFF91EF91BF91AF919F91D5
:1004B0008F917F916F915F914F913F912F910F900D
:1004C0000FBE0F901F901895789480B7826080BF00
:1004D00080B7816080BF83B7826083BF83B781604C
:1004E00083BF89B7816089BF1EBC8EB582608EBD17
:1004F0008EB581608EBD8FB581608FBD329A319A85
:100500003098379A809193008C3008F05EC0E7E411
:10051000F0E02491ECE3F0E08491882399F090E0FE
:10052000880F991FFC01ED5CFF4FA591B491FC0170
:10053000E35DFF4F859194918FB7F894EC91E22B96
:10054000EC938FBF20919300822F90E063E070E0E6
:100550006AD1FC01E159FF4F9081907C93609083B8
:100560001092940010929500822F6CE06DD1482F6C
:1005700090E06CE070E057D1FC0120E030E0C90170
:100580008E0F9F1F63E070E04ED181599F4FDC01B9
:100590008C9186FD0EC02F5F3F4F2C30310579F7CF
:1005A000411107C01FBC82E08EBD1DBC1CBC599A06
:1005B000619A8091930090E063E070E034D1FC0197
:1005C000E159FF4F80818064808300E010E084EB7C
:1005D000E82EF12C1D9817B8369A3699FECF84B1C3
:1005E00025B190E0922B90936E0080936D00853939
:1005F0009240B4F110926C0010926B00C0916B00AD
:10060000D0916C00C43BD1056CF4CE0148DD65E0AF
:1006100070E080E090E02DDE2196D0936C00C093D6
:100620006B00ECCFF0926C00E0926B00C0916B001D
:10063000D0916C001C161D066CF4CE0130DD65E017
:1006400070E080E090E015DE2197D0936C00C093BD
:100650006B00ECCF68EC70E080E090E00ADE03C055
:1006600060E089E0A6DD0115110509F4B3CFC8DC0F
:10067000B1CF809160008C3090F491E0980F90930E
:1006800060008093930090E063E070E0CCD08159EB
:100690009F4F2CED35E0FC013283218308958FEFCD
:1006A000809393000895052E97FB16F400940FD0C5
:1006B00057FD05D068D007FC02D046F408C050951D
:1006C0004095309521953F4F4F4F5F4F089590953E
:1006D0008095709561957F4F8F4F9F4F08956894D7
:1006E0000013E894A0E0B0E0E7E7F3E01DC0EFEF0F
:1006F000E7F959016A015E23550FEE08FE2C8701C8
:100700009B01AC019E23990F660B762FCB015DD028
:10071000CDB7DEB7EAE024C02F923F924F925F92AE
:100720006F927F928F929F92AF92BF92CF92DF9201
:10073000EF92FF920F931F93CF93DF93CDB7DEB766
:10074000CA1BDB0B0FB6F894DEBF0FBECDBF0994FA
:100750002A88398848885F846E847D848C849B8451
:10076000AA84B984C884DF80EE80FD800C811B815F
:10077000AA81B981CE0FD11D0FB6F894DEBF0FBE8E
:10078000CDBFED010895A1E21A2EAA1BBB1BFD01EE
:100790000DC0AA1FBB1FEE1FFF1FA217B307E40760
:1007A000F50720F0A21BB30BE40BF50B661F771FB8
:1007B000881F991F1A9469F7609570958095909598
:1007C0009B01AC01BD01CF010895DF93CF939F92B0
:1007D000A0E49A2E0024D001E001F00116950795BF
:1007E000F794E794D794C794B794A79448F4106803
:1007F000A20FB31FC41FD51FE61FF71F081E191E27
:10080000220F331F441F551F661F771F881F991F14
:100810009A9421F79D01AE01BF01C00111249F9060
:10082000CF91DF9108950024552704C0080E591F69
:10083000880F991F009729F076956795B8F3710591
:10084000B9F7802D952F0895991B79E004C0991F61
:10085000961708F0961B881F7A95C9F7809508951A
:10086000EE0FFF1F0590F491E02D0994F894FFCF4F
:00000001FF
