:1000000010C017C016C015C014C013C012C011C054
:1000100010C00FC00EC00DC00CC00BC00AC009C07C
:1000200008C011241FBECFE5D1E0DEBFCDBF02D096
:100030002DC0E6CF84E087BB88BB1ABA80E88BBBB3
:1000400089B3807889BB81111FC0C29A2FE78AE1EA
:1000500096E0215080409040E1F700C00000C29837
:100060002FE78AE196E0215080409040E1F700C000
:100070000000C29A2FE78AE196E02150804090402C
:10008000E1F700C00000CF9AC298DACFF894FFCF12
:00000001FF
