:1000000010C017C016C015C014C013C012C011C054
:1000100010C00FC00EC00DC00CC00BC00AC009C07C
:1000200008C011241FBECFE5D1E0DEBFCDBF02D096
:1000300035C0E6CF80E886BD16BC8FBD82E18EBD9F
:1000400088EA91E695BD84BDD898D09A42EE54E0F6
:1000500023E537E084EC99E05BBD4ABD6FEF78E0C3
:10006000EDE361507040E040E1F700C000003BBDAF
:100070002ABD6FEF78E0EDE361507040E040E1F7BA
:1000800000C000009BBD8ABD6FEF78E0EDE36150DA
:100090007040E040E1F700C00000DECFF894FFCFF1
:00000001FF
